{
	"if_else.sol": {
		"solidity": {
			"abi": [
				{
					"constant": false,
					"inputs": [],
					"name": "dec_mk",
					"outputs": [
						{
							"internalType": "bool",
							"name": "",
							"type": "bool"
						}
					],
					"payable": false,
					"stateMutability": "nonpayable",
					"type": "function"
				}
			],
			"devdoc": {
				"methods": {}
			},
			"evm": {
				"assembly": "    /* \"if_else.sol\":67:236  contract solidity {... */\n  mstore(0x40, 0x80)\n    /* \"if_else.sol\":99:101  10 */\n  0x0a\n    /* \"if_else.sol\":92:101  uint i=10 */\n  0x00\n  sstore\n    /* \"if_else.sol\":67:236  contract solidity {... */\n  callvalue\n    /* \"--CODEGEN--\":8:17   */\n  dup1\n    /* \"--CODEGEN--\":5:7   */\n  iszero\n  tag_1\n  jumpi\n    /* \"--CODEGEN--\":30:31   */\n  0x00\n    /* \"--CODEGEN--\":27:28   */\n  dup1\n    /* \"--CODEGEN--\":20:32   */\n  revert\n    /* \"--CODEGEN--\":5:7   */\ntag_1:\n    /* \"if_else.sol\":67:236  contract solidity {... */\n  pop\n  dataSize(sub_0)\n  dup1\n  dataOffset(sub_0)\n  0x00\n  codecopy\n  0x00\n  return\nstop\n\nsub_0: assembly {\n        /* \"if_else.sol\":67:236  contract solidity {... */\n      mstore(0x40, 0x80)\n      callvalue\n        /* \"--CODEGEN--\":8:17   */\n      dup1\n        /* \"--CODEGEN--\":5:7   */\n      iszero\n      tag_1\n      jumpi\n        /* \"--CODEGEN--\":30:31   */\n      0x00\n        /* \"--CODEGEN--\":27:28   */\n      dup1\n        /* \"--CODEGEN--\":20:32   */\n      revert\n        /* \"--CODEGEN--\":5:7   */\n    tag_1:\n        /* \"if_else.sol\":67:236  contract solidity {... */\n      pop\n      jumpi(tag_2, lt(calldatasize, 0x04))\n      shr(0xe0, calldataload(0x00))\n      dup1\n      0x0fe74e17\n      eq\n      tag_3\n      jumpi\n    tag_2:\n      0x00\n      dup1\n      revert\n        /* \"if_else.sol\":120:234  function dec_mk() public returns(bool){... */\n    tag_3:\n      tag_4\n      tag_5\n      jump\t// in\n    tag_4:\n      mload(0x40)\n      dup1\n      dup3\n      iszero\n      iszero\n      iszero\n      iszero\n      dup2\n      mstore\n      0x20\n      add\n      swap2\n      pop\n      pop\n      mload(0x40)\n      dup1\n      swap2\n      sub\n      swap1\n      return\n    tag_5:\n        /* \"if_else.sol\":153:157  bool */\n      0x00\n        /* \"if_else.sol\":177:179  10 */\n      0x0a\n        /* \"if_else.sol\":175:176  i */\n      sload(0x00)\n        /* \"if_else.sol\":175:179  i<10 */\n      lt\n        /* \"if_else.sol\":172:224  if(i<10){... */\n      iszero\n      tag_7\n      jumpi\n        /* \"if_else.sol\":205:209  true */\n      0x01\n        /* \"if_else.sol\":198:209  return true */\n      swap1\n      pop\n      jump(tag_6)\n        /* \"if_else.sol\":172:224  if(i<10){... */\n    tag_7:\n        /* \"if_else.sol\":120:234  function dec_mk() public returns(bool){... */\n    tag_6:\n      swap1\n      jump\t// out\n\n    auxdata: 0xa265627a7a7231582070ecf3091a3b7904ff6d3155b2a58e9ad929e38bfe0528c3e2d3d580ad5d7dfa64736f6c63430005110032\n}\n",
				"bytecode": {
					"linkReferences": {},
					"object": "6080604052600a600055348015601457600080fd5b50609a806100236000396000f3fe6080604052348015600f57600080fd5b506004361060285760003560e01c80630fe74e1714602d575b600080fd5b6033604d565b604051808215151515815260200191505060405180910390f35b6000600a6000541015606157600190506062565b5b9056fea265627a7a7231582070ecf3091a3b7904ff6d3155b2a58e9ad929e38bfe0528c3e2d3d580ad5d7dfa64736f6c63430005110032",
					"opcodes": "PUSH1 0x80 PUSH1 0x40 MSTORE PUSH1 0xA PUSH1 0x0 SSTORE CALLVALUE DUP1 ISZERO PUSH1 0x14 JUMPI PUSH1 0x0 DUP1 REVERT JUMPDEST POP PUSH1 0x9A DUP1 PUSH2 0x23 PUSH1 0x0 CODECOPY PUSH1 0x0 RETURN INVALID PUSH1 0x80 PUSH1 0x40 MSTORE CALLVALUE DUP1 ISZERO PUSH1 0xF JUMPI PUSH1 0x0 DUP1 REVERT JUMPDEST POP PUSH1 0x4 CALLDATASIZE LT PUSH1 0x28 JUMPI PUSH1 0x0 CALLDATALOAD PUSH1 0xE0 SHR DUP1 PUSH4 0xFE74E17 EQ PUSH1 0x2D JUMPI JUMPDEST PUSH1 0x0 DUP1 REVERT JUMPDEST PUSH1 0x33 PUSH1 0x4D JUMP JUMPDEST PUSH1 0x40 MLOAD DUP1 DUP3 ISZERO ISZERO ISZERO ISZERO DUP2 MSTORE PUSH1 0x20 ADD SWAP2 POP POP PUSH1 0x40 MLOAD DUP1 SWAP2 SUB SWAP1 RETURN JUMPDEST PUSH1 0x0 PUSH1 0xA PUSH1 0x0 SLOAD LT ISZERO PUSH1 0x61 JUMPI PUSH1 0x1 SWAP1 POP PUSH1 0x62 JUMP JUMPDEST JUMPDEST SWAP1 JUMP INVALID LOG2 PUSH6 0x627A7A723158 KECCAK256 PUSH17 0xECF3091A3B7904FF6D3155B2A58E9AD929 0xE3 DUP12 INVALID SDIV 0x28 0xC3 0xE2 0xD3 0xD5 DUP1 0xAD 0x5D PUSH30 0xFA64736F6C63430005110032000000000000000000000000000000000000 "
				},
				"gasEstimates": {
					"creation": {
						"codeDepositCost": "30800",
						"executionCost": "20087",
						"totalCost": "50887"
					},
					"external": {
						"dec_mk()": "1040"
					}
				},
				"methodIdentifiers": {
					"dec_mk()": "0fe74e17"
				}
			},
			"storageLayout": {
				"storage": [
					{
						"astId": 4,
						"contract": "if_else.sol:solidity",
						"label": "i",
						"offset": 0,
						"slot": "0",
						"type": "t_uint256"
					}
				],
				"types": {
					"t_uint256": {
						"encoding": "inplace",
						"label": "uint256",
						"numberOfBytes": "32"
					}
				}
			},
			"userdoc": {
				"methods": {}
			}
		}
	}
}