{
	"if_else.sol": {
		"IfElse": {
			"abi": [
				{
					"constant": true,
					"inputs": [
						{
							"internalType": "int256",
							"name": "num",
							"type": "int256"
						}
					],
					"name": "checkEvenOdd",
					"outputs": [
						{
							"internalType": "string",
							"name": "",
							"type": "string"
						}
					],
					"payable": false,
					"stateMutability": "view",
					"type": "function"
				}
			],
			"devdoc": {
				"methods": {}
			},
			"evm": {
				"assembly": "    /* \"if_else.sol\":65:443  contract IfElse{... */\n  mstore(0x40, 0x80)\n  callvalue\n    /* \"--CODEGEN--\":8:17   */\n  dup1\n    /* \"--CODEGEN--\":5:7   */\n  iszero\n  tag_1\n  jumpi\n    /* \"--CODEGEN--\":30:31   */\n  0x00\n    /* \"--CODEGEN--\":27:28   */\n  dup1\n    /* \"--CODEGEN--\":20:32   */\n  revert\n    /* \"--CODEGEN--\":5:7   */\ntag_1:\n    /* \"if_else.sol\":65:443  contract IfElse{... */\n  pop\n  dataSize(sub_0)\n  dup1\n  dataOffset(sub_0)\n  0x00\n  codecopy\n  0x00\n  return\nstop\n\nsub_0: assembly {\n        /* \"if_else.sol\":65:443  contract IfElse{... */\n      mstore(0x40, 0x80)\n      callvalue\n        /* \"--CODEGEN--\":8:17   */\n      dup1\n        /* \"--CODEGEN--\":5:7   */\n      iszero\n      tag_1\n      jumpi\n        /* \"--CODEGEN--\":30:31   */\n      0x00\n        /* \"--CODEGEN--\":27:28   */\n      dup1\n        /* \"--CODEGEN--\":20:32   */\n      revert\n        /* \"--CODEGEN--\":5:7   */\n    tag_1:\n        /* \"if_else.sol\":65:443  contract IfElse{... */\n      pop\n      jumpi(tag_2, lt(calldatasize, 0x04))\n      shr(0xe0, calldataload(0x00))\n      dup1\n      0xee708b53\n      eq\n      tag_3\n      jumpi\n    tag_2:\n      0x00\n      dup1\n      revert\n        /* \"if_else.sol\":90:441  function checkEvenOdd(int num) public pure returns(string memory){... */\n    tag_3:\n      tag_4\n      0x04\n      dup1\n      calldatasize\n      sub\n        /* \"--CODEGEN--\":13:15   */\n      0x20\n        /* \"--CODEGEN--\":8:11   */\n      dup2\n        /* \"--CODEGEN--\":5:16   */\n      lt\n        /* \"--CODEGEN--\":2:4   */\n      iszero\n      tag_5\n      jumpi\n        /* \"--CODEGEN--\":29:30   */\n      0x00\n        /* \"--CODEGEN--\":26:27   */\n      dup1\n        /* \"--CODEGEN--\":19:31   */\n      revert\n        /* \"--CODEGEN--\":2:4   */\n    tag_5:\n        /* \"if_else.sol\":90:441  function checkEvenOdd(int num) public pure returns(string memory){... */\n      dup2\n      add\n      swap1\n      dup1\n      dup1\n      calldataload\n      swap1\n      0x20\n      add\n      swap1\n      swap3\n      swap2\n      swap1\n      pop\n      pop\n      pop\n      tag_6\n      jump\t// in\n    tag_4:\n      mload(0x40)\n      dup1\n      dup1\n      0x20\n      add\n      dup3\n      dup2\n      sub\n      dup3\n      mstore\n      dup4\n      dup2\n      dup2\n      mload\n      dup2\n      mstore\n      0x20\n      add\n      swap2\n      pop\n      dup1\n      mload\n      swap1\n      0x20\n      add\n      swap1\n      dup1\n      dup4\n      dup4\n        /* \"--CODEGEN--\":23:24   */\n      0x00\n        /* \"--CODEGEN--\":8:108   */\n    tag_7:\n        /* \"--CODEGEN--\":33:36   */\n      dup4\n        /* \"--CODEGEN--\":30:31   */\n      dup2\n        /* \"--CODEGEN--\":27:37   */\n      lt\n        /* \"--CODEGEN--\":8:108   */\n      iszero\n      tag_9\n      jumpi\n        /* \"--CODEGEN--\":99:100   */\n      dup1\n        /* \"--CODEGEN--\":94:97   */\n      dup3\n        /* \"--CODEGEN--\":90:101   */\n      add\n        /* \"--CODEGEN--\":84:102   */\n      mload\n        /* \"--CODEGEN--\":80:81   */\n      dup2\n        /* \"--CODEGEN--\":75:78   */\n      dup5\n        /* \"--CODEGEN--\":71:82   */\n      add\n        /* \"--CODEGEN--\":64:103   */\n      mstore\n        /* \"--CODEGEN--\":52:54   */\n      0x20\n        /* \"--CODEGEN--\":49:50   */\n      dup2\n        /* \"--CODEGEN--\":45:55   */\n      add\n        /* \"--CODEGEN--\":40:55   */\n      swap1\n      pop\n        /* \"--CODEGEN--\":8:108   */\n      jump(tag_7)\n    tag_9:\n        /* \"--CODEGEN--\":12:26   */\n      pop\n        /* \"if_else.sol\":90:441  function checkEvenOdd(int num) public pure returns(string memory){... */\n      pop\n      pop\n      pop\n      swap1\n      pop\n      swap1\n      dup2\n      add\n      swap1\n      0x1f\n      and\n      dup1\n      iszero\n      tag_10\n      jumpi\n      dup1\n      dup3\n      sub\n      dup1\n      mload\n      0x01\n      dup4\n      0x20\n      sub\n      0x0100\n      exp\n      sub\n      not\n      and\n      dup2\n      mstore\n      0x20\n      add\n      swap2\n      pop\n    tag_10:\n      pop\n      swap3\n      pop\n      pop\n      pop\n      mload(0x40)\n      dup1\n      swap2\n      sub\n      swap1\n      return\n    tag_6:\n        /* \"if_else.sol\":141:154  string memory */\n      0x60\n        /* \"if_else.sol\":166:184  string  memory str */\n      dup1\n        /* \"if_else.sol\":203:204  0 */\n      0x00\n        /* \"if_else.sol\":198:201  num */\n      dup4\n        /* \"if_else.sol\":198:204  num <0 */\n      slt\n        /* \"if_else.sol\":194:410  if (num <0){... */\n      iszero\n      tag_12\n      jumpi\n        /* \"if_else.sol\":223:259  str=\"Please enter a positive number\" */\n      mload(0x40)\n      dup1\n      0x40\n      add\n      0x40\n      mstore\n      dup1\n      0x1e\n      dup2\n      mstore\n      0x20\n      add\n      0x506c6561736520656e746572206120706f736974697665206e756d6265720000\n      dup2\n      mstore\n      pop\n      swap1\n      pop\n        /* \"if_else.sol\":194:410  if (num <0){... */\n      jump(tag_13)\n    tag_12:\n        /* \"if_else.sol\":296:297  0 */\n      0x00\n        /* \"if_else.sol\":293:294  2 */\n      0x02\n        /* \"if_else.sol\":287:290  num */\n      dup5\n        /* \"if_else.sol\":287:294  num % 2 */\n      dup2\n      tag_14\n      jumpi\n      invalid\n    tag_14:\n      smod\n        /* \"if_else.sol\":287:297  num % 2==0 */\n      eq\n        /* \"if_else.sol\":284:410  if(num % 2==0){... */\n      iszero\n      tag_15\n      jumpi\n        /* \"if_else.sol\":312:332  str=\"Number is even\" */\n      mload(0x40)\n      dup1\n      0x40\n      add\n      0x40\n      mstore\n      dup1\n      0x0e\n      dup2\n      mstore\n      0x20\n      add\n      0x4e756d626572206973206576656e000000000000000000000000000000000000\n      dup2\n      mstore\n      pop\n      swap1\n      pop\n        /* \"if_else.sol\":284:410  if(num % 2==0){... */\n      jump(tag_16)\n    tag_15:\n        /* \"if_else.sol\":362:363  1 */\n      0x01\n        /* \"if_else.sol\":359:360  2 */\n      0x02\n        /* \"if_else.sol\":353:356  num */\n      dup5\n        /* \"if_else.sol\":353:360  num % 2 */\n      dup2\n      tag_17\n      jumpi\n      invalid\n    tag_17:\n      smod\n        /* \"if_else.sol\":353:363  num % 2==1 */\n      eq\n        /* \"if_else.sol\":349:410  if (num % 2==1){... */\n      iszero\n      tag_18\n      jumpi\n        /* \"if_else.sol\":379:399  str= \"Number is odd\" */\n      mload(0x40)\n      dup1\n      0x40\n      add\n      0x40\n      mstore\n      dup1\n      0x0d\n      dup2\n      mstore\n      0x20\n      add\n      0x4e756d626572206973206f646400000000000000000000000000000000000000\n      dup2\n      mstore\n      pop\n      swap1\n      pop\n        /* \"if_else.sol\":349:410  if (num % 2==1){... */\n    tag_18:\n        /* \"if_else.sol\":284:410  if(num % 2==0){... */\n    tag_16:\n        /* \"if_else.sol\":194:410  if (num <0){... */\n    tag_13:\n        /* \"if_else.sol\":426:429  str */\n      dup1\n        /* \"if_else.sol\":419:429  return str */\n      swap2\n      pop\n      pop\n        /* \"if_else.sol\":90:441  function checkEvenOdd(int num) public pure returns(string memory){... */\n      swap2\n      swap1\n      pop\n      jump\t// out\n\n    auxdata: 0xa265627a7a72315820f710fcc4361f53184a511aa8b3b022fe1975444af94699f9e92f27f091cb686564736f6c63430005110032\n}\n",
				"bytecode": {
					"linkReferences": {},
					"object": "608060405234801561001057600080fd5b506101fc806100206000396000f3fe608060405234801561001057600080fd5b506004361061002b5760003560e01c8063ee708b5314610030575b600080fd5b61005c6004803603602081101561004657600080fd5b81019080803590602001909291905050506100d7565b6040518080602001828103825283818151815260200191508051906020019080838360005b8381101561009c578082015181840152602081019050610081565b50505050905090810190601f1680156100c95780820380516001836020036101000a031916815260200191505b509250505060405180910390f35b6060806000831215610120576040518060400160405280601e81526020017f506c6561736520656e746572206120706f736974697665206e756d626572000081525090506101be565b60006002848161012c57fe5b071415610170576040518060400160405280600e81526020017f4e756d626572206973206576656e00000000000000000000000000000000000081525090506101bd565b60016002848161017c57fe5b0714156101bc576040518060400160405280600d81526020017f4e756d626572206973206f64640000000000000000000000000000000000000081525090505b5b5b8091505091905056fea265627a7a72315820f710fcc4361f53184a511aa8b3b022fe1975444af94699f9e92f27f091cb686564736f6c63430005110032",
					"opcodes": "PUSH1 0x80 PUSH1 0x40 MSTORE CALLVALUE DUP1 ISZERO PUSH2 0x10 JUMPI PUSH1 0x0 DUP1 REVERT JUMPDEST POP PUSH2 0x1FC DUP1 PUSH2 0x20 PUSH1 0x0 CODECOPY PUSH1 0x0 RETURN INVALID PUSH1 0x80 PUSH1 0x40 MSTORE CALLVALUE DUP1 ISZERO PUSH2 0x10 JUMPI PUSH1 0x0 DUP1 REVERT JUMPDEST POP PUSH1 0x4 CALLDATASIZE LT PUSH2 0x2B JUMPI PUSH1 0x0 CALLDATALOAD PUSH1 0xE0 SHR DUP1 PUSH4 0xEE708B53 EQ PUSH2 0x30 JUMPI JUMPDEST PUSH1 0x0 DUP1 REVERT JUMPDEST PUSH2 0x5C PUSH1 0x4 DUP1 CALLDATASIZE SUB PUSH1 0x20 DUP2 LT ISZERO PUSH2 0x46 JUMPI PUSH1 0x0 DUP1 REVERT JUMPDEST DUP2 ADD SWAP1 DUP1 DUP1 CALLDATALOAD SWAP1 PUSH1 0x20 ADD SWAP1 SWAP3 SWAP2 SWAP1 POP POP POP PUSH2 0xD7 JUMP JUMPDEST PUSH1 0x40 MLOAD DUP1 DUP1 PUSH1 0x20 ADD DUP3 DUP2 SUB DUP3 MSTORE DUP4 DUP2 DUP2 MLOAD DUP2 MSTORE PUSH1 0x20 ADD SWAP2 POP DUP1 MLOAD SWAP1 PUSH1 0x20 ADD SWAP1 DUP1 DUP4 DUP4 PUSH1 0x0 JUMPDEST DUP4 DUP2 LT ISZERO PUSH2 0x9C JUMPI DUP1 DUP3 ADD MLOAD DUP2 DUP5 ADD MSTORE PUSH1 0x20 DUP2 ADD SWAP1 POP PUSH2 0x81 JUMP JUMPDEST POP POP POP POP SWAP1 POP SWAP1 DUP2 ADD SWAP1 PUSH1 0x1F AND DUP1 ISZERO PUSH2 0xC9 JUMPI DUP1 DUP3 SUB DUP1 MLOAD PUSH1 0x1 DUP4 PUSH1 0x20 SUB PUSH2 0x100 EXP SUB NOT AND DUP2 MSTORE PUSH1 0x20 ADD SWAP2 POP JUMPDEST POP SWAP3 POP POP POP PUSH1 0x40 MLOAD DUP1 SWAP2 SUB SWAP1 RETURN JUMPDEST PUSH1 0x60 DUP1 PUSH1 0x0 DUP4 SLT ISZERO PUSH2 0x120 JUMPI PUSH1 0x40 MLOAD DUP1 PUSH1 0x40 ADD PUSH1 0x40 MSTORE DUP1 PUSH1 0x1E DUP2 MSTORE PUSH1 0x20 ADD PUSH32 0x506C6561736520656E746572206120706F736974697665206E756D6265720000 DUP2 MSTORE POP SWAP1 POP PUSH2 0x1BE JUMP JUMPDEST PUSH1 0x0 PUSH1 0x2 DUP5 DUP2 PUSH2 0x12C JUMPI INVALID JUMPDEST SMOD EQ ISZERO PUSH2 0x170 JUMPI PUSH1 0x40 MLOAD DUP1 PUSH1 0x40 ADD PUSH1 0x40 MSTORE DUP1 PUSH1 0xE DUP2 MSTORE PUSH1 0x20 ADD PUSH32 0x4E756D626572206973206576656E000000000000000000000000000000000000 DUP2 MSTORE POP SWAP1 POP PUSH2 0x1BD JUMP JUMPDEST PUSH1 0x1 PUSH1 0x2 DUP5 DUP2 PUSH2 0x17C JUMPI INVALID JUMPDEST SMOD EQ ISZERO PUSH2 0x1BC JUMPI PUSH1 0x40 MLOAD DUP1 PUSH1 0x40 ADD PUSH1 0x40 MSTORE DUP1 PUSH1 0xD DUP2 MSTORE PUSH1 0x20 ADD PUSH32 0x4E756D626572206973206F646400000000000000000000000000000000000000 DUP2 MSTORE POP SWAP1 POP JUMPDEST JUMPDEST JUMPDEST DUP1 SWAP2 POP POP SWAP2 SWAP1 POP JUMP INVALID LOG2 PUSH6 0x627A7A723158 KECCAK256 0xF7 LT 0xFC 0xC4 CALLDATASIZE 0x1F MSTORE8 XOR 0x4A MLOAD BYTE 0xA8 0xB3 0xB0 0x22 INVALID NOT PUSH22 0x444AF94699F9E92F27F091CB686564736F6C63430005 GT STOP ORIGIN "
				},
				"gasEstimates": {
					"creation": {
						"codeDepositCost": "101600",
						"executionCost": "147",
						"totalCost": "101747"
					},
					"external": {
						"checkEvenOdd(int256)": "infinite"
					}
				},
				"methodIdentifiers": {
					"checkEvenOdd(int256)": "ee708b53"
				}
			},
			"storageLayout": {
				"storage": [],
				"types": null
			},
			"userdoc": {
				"methods": {}
			}
		}
	}
}