{
	"data": {
		"bytecode": {
			"linkReferences": {},
			"object": "6080604052600a600055348015601457600080fd5b50609a806100236000396000f3fe6080604052348015600f57600080fd5b506004361060285760003560e01c80638873af2414602d575b600080fd5b6033604d565b604051808215151515815260200191505060405180910390f35b6000600a6000541015606157600190506062565b5b9056fea265627a7a72315820cecdd78f61841da444dfe87f51eee7ac96bc18a95f2a2a2b662c46c6b73fbd7964736f6c63430005110032",
			"opcodes": "PUSH1 0x80 PUSH1 0x40 MSTORE PUSH1 0xA PUSH1 0x0 SSTORE CALLVALUE DUP1 ISZERO PUSH1 0x14 JUMPI PUSH1 0x0 DUP1 REVERT JUMPDEST POP PUSH1 0x9A DUP1 PUSH2 0x23 PUSH1 0x0 CODECOPY PUSH1 0x0 RETURN INVALID PUSH1 0x80 PUSH1 0x40 MSTORE CALLVALUE DUP1 ISZERO PUSH1 0xF JUMPI PUSH1 0x0 DUP1 REVERT JUMPDEST POP PUSH1 0x4 CALLDATASIZE LT PUSH1 0x28 JUMPI PUSH1 0x0 CALLDATALOAD PUSH1 0xE0 SHR DUP1 PUSH4 0x8873AF24 EQ PUSH1 0x2D JUMPI JUMPDEST PUSH1 0x0 DUP1 REVERT JUMPDEST PUSH1 0x33 PUSH1 0x4D JUMP JUMPDEST PUSH1 0x40 MLOAD DUP1 DUP3 ISZERO ISZERO ISZERO ISZERO DUP2 MSTORE PUSH1 0x20 ADD SWAP2 POP POP PUSH1 0x40 MLOAD DUP1 SWAP2 SUB SWAP1 RETURN JUMPDEST PUSH1 0x0 PUSH1 0xA PUSH1 0x0 SLOAD LT ISZERO PUSH1 0x61 JUMPI PUSH1 0x1 SWAP1 POP PUSH1 0x62 JUMP JUMPDEST JUMPDEST SWAP1 JUMP INVALID LOG2 PUSH6 0x627A7A723158 KECCAK256 0xCE 0xCD 0xD7 DUP16 PUSH2 0x841D LOG4 DIFFICULTY 0xDF 0xE8 PUSH32 0x51EEE7AC96BC18A95F2A2A2B662C46C6B73FBD7964736F6C6343000511003200 "
		},
		"gasEstimates": {
			"creation": {
				"codeDepositCost": "30800",
				"executionCost": "20087",
				"totalCost": "50887"
			},
			"external": {
				"decision_making()": "1040"
			}
		},
		"methodIdentifiers": {
			"decision_making()": "8873af24"
		}
	},
	"abi": [
		{
			"constant": false,
			"inputs": [],
			"name": "decision_making",
			"outputs": [
				{
					"internalType": "bool",
					"name": "",
					"type": "bool"
				}
			],
			"payable": false,
			"stateMutability": "nonpayable",
			"type": "function"
		}
	]
}